:02000000332D9E
:0C000600000000000000000000000800E6
:10001200243083120313FC00B530FD00FD0B0F28C2
:0A002200FC0B0F280000000008008E
:0E002C00533083120313FD00FD0B1A28080049
:10003A0083120313F801F9011030FC00710DF80D59
:10004A00F90D7408F8027508031C750FF9020318F4
:10005A0035287408F80775080318750FF90703108F
:0A006A00F00DF10DFC0B2328080037
:1000740083120317AC1B40288613412886172C1BB8
:100084004528061346280617AC1A4A2886124B2818
:1000940086162C1A4F2806125028061603136F18BA
:1000A40055280614562806108614032086100317B4
:1000B400AC195E2886135F2886172C19632806134B
:1000C40064280617AC1868288612692886162C1826
:1000D4006D2806126E28061603136F18732806146B
:1000E400742806108614032086106F1C7B280920B0
:0600F4007C281620080024
:1000FA0083120317AA0105302A0203188B282A083B
:10010A002907840020308000AA0A80282A082907A3
:10011A0084008001AA032A082907AB000A30F400E8
:10012A00F5012708F0002808F1001D207808F000E2
:10013A007908F1003030F00703172B0884007008A3
:10014A0080000A30F400F5012708F0002808F100C1
:10015A001D2070080317A7007108A8000030710657
:10016A00031DB92800307006031DBC28BE28AA0347
:04017A0090280800C1
:10017E00831203136F1003172708AC003A206F1475
:02018E00080067
:10019000DA288030831203179E00ED28C0309E00BD
:1001A000ED2894309E00ED28D4309E00ED2880305C
:1001B0009E00ED28831203171E08013A0319C9286F
:1001C0001E08023A0319CE281E08033A0319D12843
:1001D0001E08043A0319D428D7281F03F0001E086C
:1001E000F00770089E007008AC003A206F100317EB
:1001F000A10121082007840000080319082921080B
:10020000200784000008A700BF200317A10AF928CF
:0602100003136F14080047
:1002160083120317A301A4011E08A5001F08A60048
:1002260080301F06F00080307002031D1C2900304C
:100236001E0203182A290130A3000030A4001E085C
:10024600003CA5001F08031C013EA601A6022508C6
:10025600A7002608A8002008A9007D200630A100D6
:100266000030A2002208003C031D3B292108003C67
:100276000318562921082007F20001302102F00058
:100286000030031C013E2202F100700820078400A2
:100296000008F00072088400700880000130A10296
:1002A600031CA2033529200884002030800023087F
:1002B600240403197429A101A2012108200784003E
:1002C6000008203A031D6B29A10A0319A20A602916
:1002D6000130A102031CA2032108200784002D304F
:0402E600800008008C
:0E02EA00831603135D088A005C08820008007A
:1002F8008E298030831203179E00A129C0309E00EA
:10030800A12994309E00A129D4309E00A1298030D3
:100318009E00A129831203171E08013A03197D299B
:100328001E08023A031982291E08033A031985296F
:100338001E08043A031988298B291F03F0001E0898
:10034800F00770089E0003136F1470080317AC00C1
:100358003A206F1003172008AC003A206F140800E9
:10036800710DF80DF90D7408F8027508031C750F66
:10037800F902F00DF10D0F30FC00710DF80DF90DBB
:100388007408701CCD29F8027508031C750FF90252
:10039800D229F80775080318750FF907F00DF10D44
:1003A800FC0BC1297018DE297408F80775080318B2
:0803B800750FF90700000800B1
:1003C00083120313FB01FA01F9018030F800F10CEC
:1003D000F00C031CF4297408F90775080318750F4D
:1003E000FA070318FB0A0310F01FFC297408FA0728
:1003F00075080318750FFB07FB0CFA0CF90CF80CC9
:10040000031CE7297B08F3007A08F2007908F10061
:060410007808F00008006E
:10041600831203137408003A031D1A2A7508003A5A
:10042600031D1A2AFF30F0007F30F100732A831271
:100436000313FD01F901F801710870040319003472
:1004460071087506FA00FA1BFD09FB01F51F302A33
:10045600F409F509F40A0319F50AF11F372AF00918
:10046600F109F00A0319F10A71087504FA00FA1B7A
:100476004C2AB4217B185F2AFD1F0034F009F109CC
:10048600F00A0319F10AF809F909F80A0319F90A31
:100496000034F51F5B2AF11B572A7108F900700812
:1004A600F800F101F0013F2AF101F001F00A0034F1
:1004B600F109F009FB0A3C2AF80A0319F90A74083B
:1004C6007802031D3F2A75087902031D3F2AF901A8
:1004D600F801F00A0319F10AF11F3F2A0000FF3460
:0204E60008000C
:1004E800831203171A0884000008F300840A00081E
:1004F800F4001B0884000008F100840A0008F200D8
:1005080080307406F000803072067002031D8E2A57
:10051800710873020318BF2A1D08313A031D9F2A68
:1005280003130716023003179E0003309F00A03004
:10053800A000C820BE2A03171D08323A031DAF2A9F
:1005480003138716023003179E0009309F00C1303D
:10055800A000C820BE2A03171D08333A031DBE2A6F
:1005680003130717023003179E000F309F00BD309A
:10057800A000C820082B03171A0884000008F300FD
:10058800840A0008F4001B0884000008F100840AAB
:100598000008F20080307406F000803072067002A5
:1005A800031DD82A71087302031C082B1D08313A51
:1005B800031DE92A03130712023003179E000330B4
:1005C8009F00B930A000C820082B03171D08323A35
:1005D800031DF92A03138712023003179E000930FE
:1005E8009F00D130A000C820082B03171D08333AFC
:1005F800031D082B03130713023003179E000F3047
:100608009F00CD30A000C82003171A0884000008F6
:10061800013EF00000300318013E840A0007F10093
:100628001A088400700880007108840A80001A087B
:1006380084000008F400840A0008F5001B08840000
:100648000008F000840A0008F1001C088400000873
:100658007007F20071080318013E840A0007F300CE
:1006680075087306031D3A2B72087406031D412B87
:0C0678001A0884008001840A8001080038
:1006840083160313861006100612861206138613A9
:10069400831286100610861306138612061209208A
:1006A40009200920861606168614032086100920C0
:1006B400861403208610092086140320861009203E
:1006C400061286140320861009208614032086103F
:1006D40086128617861403208610092086130616B0
:1006E400861403208610061286140320861009201F
:1006F400861403208610061686140320861009200B
:100704000612861403208610861706178616061608
:0C07140086140320861009206F140800D2
:1007200075218A110A128000840ADC0A0319DD0A85
:08073000F003031D902B0800EB
:100738000130831203179E0001309F006730A0002C
:10074800C820013003179E0008309F001C08A00035
:100758007C21013003179E000A309F005F30A00003
:10076800C8200719252C071CDA2B03171A08840040
:100778000008013EF00000300318013E840A00071B
:10078800F1001A088400700880007108840A80004B
:100798000830FB009D30FC000530FD00FD0BD22B1E
:1007A800FC0BD22BFB0BD22B000000000313871C81
:1007B800122C03171A08840001300002F0000030E0
:1007C800031C013E840A0002F1001A088400700824
:1007D80080007108840A80001A0884000008F1006B
:1007E800840A0008F200FF307206031DFD2BFF305B
:1007F8007106031D042C1A0884008001840A8001F4
:100808000830FB009D30FC000530FD00FD0B0A2C74
:10081800FC0B0A2CFB0B0A2C0000000003171A081B
:10082800840000089E00840A00089F00D530A000BC
:100838000B2102309E0001309F00D530A000C82057
:10084800B52B071D282C252C01300317AC003A20A6
:10085800013003179E0001309F003130A000C820EE
:100868001230FB00C230FC006630FD00FD0B3A2C54
:10087800FC0B3A2CFB0B3A2C000001300317AC00A0
:100888003A20013003179E0001309F002930A00054
:10089800C820013003179E0008309F001C08A000E4
:1008A8007C21013003179E000A309F002030A000F1
:1008B800C8200719CD2C071C822C03171B0884009D
:1008C8000008013EF00000300318013E840A0007CA
:1008D800F1001B088400700880007108840A8000F9
:1008E8000830FB009D30FC000530FD00FD0B7A2C24
:1008F800FC0B7A2CFB0B7A2C000000000313871CDE
:10090800BA2C03171B08840001300002F0000030E5
:10091800031C013E840A0002F1001B0884007008D1
:1009280080007108840A80001B0884000008F10018
:10093800840A0008F200FF307206031DA52CFF3060
:100948007106031DAC2C1B0884008001840A8001F9
:100958000830FB009D30FC000530FD00FD0BB22C7B
:10096800FC0BB22CFB0BB22C0000000003171B0879
:10097800840000089E00840A00089F00D530A0006B
:100988000B2102309E0001309F00D530A000C82006
:100998005D2C071DD02CCD2C01300317AC003A205C
:1009A800013003179E0001309F005330A000C8207B
:1009B8001230FB00C230FC006630FD00FD0BE22C5B
:1009C800FC0BE22CFB0BE22C000001300317AC00FF
:1009D8003A20013003179E0001309F004830A000E4
:1009E800C82003171A08840000089E00840A00081B
:1009F8009F00D530A0000B2101309E000B309F00D6
:100A0800D530A000C820023003179E0001309F0097
:100A18003D30A000C82003171B08840000089E0072
:100A2800840A00089F00D530A0000B2102309E00E8
:100A38000B309F00D530A000C8201230FB00C23018
:100A4800FC006630FD00FD0B272DFC0B272DFB0B52
:0E0A5800272D000001300317AC003A200800E3
:100A6600DA2683160313E001E101E201E301E40162
:100A7600E501E601E701E801E901EA01EB01EC0124
:100A8600ED01EE01EF01831203179001910192012E
:100A960093019401950196019701980199010F30F0
:100AA60083160313870042230C300317AC003A2049
:100AB600013003179E0001309F00C530A000C820FA
:100AC6001230FB00C230FC006630FD00FD0B692DC4
:100AD600FC0B692DFB0B692D000001300317AC00E0
:100AE6003A20E03003179A00E2309B0031309C0038
:100AF6009C23E43003179A00E6309B0032309C00BA
:100B06009C23E83003179A00EA309B0033309C00A0
:100B16009C2383166208F0006308F1003C30F40061
:100B26000030F500E02170088316EC007108ED0036
:100B36006608F0006708F1003C30F4000030F5006C
:100B4600E02170088316EE007108EF006A08F000D5
:100B56006B08F1003C30F4000030F500E02170082D
:100B6600031790007108910002309E0001309F002B
:100B7600B630A000C820023003179E0007309F0041
:100B8600AC30A000C820023003179E000D309F0035
:100B9600A930A000C820143003179A00E0309B004B
:100BA600EC309C0031309D00742216309A00E430FF
:100BB6009B00EE309C0032309D00742218309A0063
:100BC600E8309B0010309C0033309D0074223C308E
:100BD600F4000030F5001208F0001308F1000B22B3
:100BE60070088316DE007108DF003C30F400003028
:100BF600F500E0217008031712029E007108031C1D
:100C0600013E13029F00D530A0000B2101309E004B
:100C160009309F00D530A000C82083165E088312D5
:100C260003179E00831603135F08831203179F00A2
:100C3600D530A0000B2101309E0001309F00D53039
:100C4600A000C820013003179E0001309F00A43089
:100C5600A000C820013003179E0007309F00B43063
:100C6600A000C820013003179E0009309F00AF3056
:100C7600A000C8201A30FB005E30FC006E30FD007C
:100C8600FD0B432EFC0B432EFB0B432E00000317DC
:0A0C9600920A0319930ACE2D4F2E87
:100DB400203084004F3083120313F0005530831623
:100DC400DC000630DD009023A03084003530F000D4
:0E0DD400A4308316DC000630DD0090230800FA
:100CAA004D3469346E3420344F34663466343A3401
:020CBA00003404
:100CBC0064346534763469346334653420340034F8
:100CCC005334653463346F346E3464347334203489
:080CDC00533465347434003414
:100CE4004D3469346E34753474346534733420345B
:060CF4003D342034003401
:100CFA005334653463346F346E346434733420345B
:060D0A003D3420340034EA
:100D10004D3469346E34753474346534733420342E
:080D20005334653474340034CF
:100D280053346534633420344F346E343A340034E9
:100D3800643465347634693463346534203400347B
:080D48004F344E342034003416
:0A0D50004D3469346E343A34003437
:060D5A0033343A3400348A
:060D600032343A34003485
:0A0D66007334653463343A3400340A
:040D70002C340034EB
:060D740031343A34003472
:080D7A004F3466346634003486
:080D82004F344E3420340034DC
:080D8A004F344E3420340034D4
:100D9200573465346C3463346F346D3465340034E5
:080DA2004F346634663400345E
:080DAA004F3466346634003456
:02400E004A2F37
:00000001FF
