:02000000342D9D
:0C000600000000000000000000000800E6
:10001200243083120313FC00B530FD00FD0B0F28C2
:0A002200FC0B0F280000000008008E
:0E002C00533083120313FD00FD0B1A28080049
:10003A0083120317A31B2328061024280614231B44
:10004A002828861029288614A31A2D2806112E2856
:10005A000615231A322886113328861503136F18BA
:10006A003828861639288612061603200612031720
:10007A00A319412806104228061423194628861077
:10008A0047288614A3184B2806114C28061523184E
:10009A00502886115128861503136F18562886167C
:1000AA00572886120616032006126F1C5E2809209E
:0600BA005F28162008007B
:1000C00083120313F801F9011030FC00710DF80DD3
:1000D000F90D7408F8027508031C750FF90203186E
:1000E00078287408F80775080318750FF9070310C6
:0A00F000F00DF10DFC0B662808006E
:1000FA0083120317A1010530210203188B28210856
:10010A002007840020308000A10A802821082007C7
:10011A0084008001A10321082007A2000A30F4000C
:10012A00F5011E08F0001F08F10060207808F000B1
:10013A007908F1003030F0070317220884007008AC
:10014A0080000A30F400F5011E08F0001F08F100D3
:10015A006020700803179E0071089F000030710626
:10016A00031DB92800307006031DBC28BE28A10350
:04017A0090280800C1
:10017E0083120313F8010830FC00700DF80D74089B
:10018E00F8020318CC28F8070310F00DFC0BC42856
:02019E00080057
:1001A000831203136F1003171E08A3001D206F1482
:0201B000080045
:1001B200EB288030831203179500FE28C03095008B
:1001C200FE2894309500FE28D4309500FE28803019
:1001D2009500FE28831203171508013A0319DA283D
:1001E2001508023A0319DF281508033A0319E22811
:1001F2001508043A0319E528E8281603F000150843
:10020200F007700895007008A3001D206F100317F7
:1002120098011808170784000008031919291808FB
:100222001707840000089E00D0200317980A0A29A5
:0602320003136F14080025
:0E023800831603135D088A005C08820008002C
:10024600710DF80DF90D7408F8027508031C750F89
:10025600F902F00DF10D0F30FC00710DF80DF90DDE
:100266007408701C3C29F8027508031C750FF90206
:100276004129F80775080318750FF907F00DF10DF8
:10028600FC0B302970184D297408F80775080318F7
:08029600750FF90700000800D4
:10029E00612980308312031795007429C0309500B0
:1002AE007429943095007429D430950074298030C7
:1002BE0095007429831203171508013A0319502962
:1002CE001508023A031955291508033A0319582936
:1002DE001508043A03195B295E291603F000150868
:1002EE00F0077008950003136F1470080317A3002E
:1002FE001D206F1003171708A3001D206F14080090
:10030E00831203179A019B0115089C0016089D0085
:10031E0080301606F00080307002031D98290030E0
:10032E0015020318A62901309A0000309B0015080B
:10033E00003C9C001608031C013E9D019D021C08FA
:10034E009E001D089F001708A0007D200630980013
:10035E00003099001908003C031DB7291808003C0D
:10036E000318D22918081707F20001301802F000FE
:10037E000030031C013E1902F100700817078400BB
:10038E000008F000720884007008800001309802A6
:10039E00031C9903B12917088400203080001A0825
:1003AE001B040319F02998019901180817078400F6
:1003BE000008203A031DE729980A0319990ADC2937
:1003CE0001309802031C99031808170784002D307A
:0403DE008000080093
:1003E200831203179701033017020318FF29170816
:1003F2001607840020308000970AF4291708160790
:100402008400800197031708160798000A30F40049
:100412001508F000BF207808F0003030F00703170D
:1004220018088400700880000A30F4001508F000F3
:10043200BF207008031795007008003A031D222A96
:08044200242A9703042A080094
:10044A00831203137408003A031D342A7508003A0C
:10045A00031D342AFF30F0007F30F1008D2A831209
:10046A000313FD01F901F80171087004031900343E
:10047A0071087506FA00FA1BFD09FB01F51F4A2AE5
:10048A00F409F509F40A0319F50AF11F512AF009CA
:10049A00F109F00A0319F10A71087504FA00FA1B46
:1004AA00662A23217B18792AFD1F0034F009F109F5
:1004BA00F00A0319F10AF809F909F80A0319F90AFD
:1004CA000034F51F752AF11B712A7108F9007008AA
:1004DA00F800F101F001592AF101F001F00A0034A3
:1004EA00F109F009FB0A562AF80A0319F90A7408ED
:1004FA007802031D592A75087902031D592AF90140
:10050A00F801F00A0319F10AF11F592A0000FF3411
:02051A000800D7
:10051C00831203137008F100F0010830FC0071081D
:10052C00F40C03189D2AFC0B962AF10100340310DD
:10053C00A22AF40C0318F107F10CF00CFC0B9F2A07
:02054C000800A5
:10054E0083120313FB01FA01F9018030F800F10C5C
:10055E00F00C031CBB2A7408F90775080318750FF5
:10056E00FA070318FB0A0310F01FC32A7408FA07D0
:10057E0075080318750FFB07FB0CFA0CF90CF80C39
:10058E00031CAE2A7B08F3007A08F2007908F1000A
:06059E007808F0000800DF
:1005A40001308312031795000130960067309700DD
:1005B400D9200130031795000830960012089700DF
:1005C4004F210130031795000A3096005F309700E1
:1005D400D92007194D2B071C102BC330FC00CD303C
:1005E400FD00FD0BF32AFC0BF32A071C102B031749
:1005F40010088400000AF0001008840070088000CD
:100604000830FB009D30FC000530FD00FD0B082B7D
:10061400FC0B082BFB0B082B000000000313871CAA
:100624003D2BC330FC00CD30FD00FD0B172BFC0B24
:10063400172B871C3D2B0317100884000003F000C0
:100644001008840070088000100884000008FF3A35
:10065400031D2F2B1008840080010830FB009D30FF
:10066400FC000530FD00FD0B352BFC0B352BFB0B83
:10067400352B0000000003171008840000089500C3
:10068400D5309600F1210230950001309600D53026
:100694009700D920EB2A071D502B4D2B013003174F
:1006A400A3001D200130031795000130960031305E
:1006B4009700D9201230FB00C230FC006630FD00E8
:1006C400FD0B622BFC0B622BFB0B622B0000013039
:1006D4000317A3001D200130031795000130960075
:1006E40029309700D920013003179500083096006F
:1006F400120897004F210130031795000A30960025
:1007040020309700D9200719E72B071CAA2BC330E8
:10071400FC00CD30FD00FD0B8D2BFC0B8D2B071C3D
:10072400AA2B031711088400000AF00011088400A2
:10073400700880000830FB009D30FC000530FD008F
:10074400FD0BA22BFC0BA22BFB0BA22B0000000029
:100754000313871CD72BC330FC00CD30FD00FD0BE9
:10076400B12BFC0BB12B871CD72B0317110884006A
:100774000003F00011088400700880001108840050
:100784000008FF3A031DC92B1108840080010830BA
:10079400FB009D30FC000530FD00FD0BCF2BFC0B56
:1007A400CF2BFB0BCF2B0000000003171108840094
:1007B40000089500D5309600F121023095000130F3
:1007C4009600D5309700D920852B071DEA2BE72BFF
:1007D40001300317A3001D200130031795000130D9
:1007E400960053309700D9201230FB00C230FC0031
:1007F4006630FD00FD0BFC2BFC0BFC2BFB0BFC2BD8
:10080400000001300317A3001D20013003179500D9
:100814000130960048309700D9200317100884004F
:1008240000089500960100309600D5309700872186
:10083400013095000B309600D5309700D920023056
:1008440003179500013096003D309700D920031717
:100854001108840000089500960100309600D530F8
:1008640097008721023095000B309600D530970011
:10087400D9201230FB00C230FC006630FD00FD0BB5
:10088400412CFC0B412CFB0B412C000001300317C5
:06089400A3001D20080076
:10089A008316031306128612861106118610061095
:1008AA008312061286120610861006118611092076
:1008BA0009200920061586150616032006120920A6
:1008CA00061603200612092006160320061209201E
:1008DA0086110616032006120920061603200612A0
:1008EA00061106140616032006120920061086159C
:1008FA000616032006128611061603200612092080
:10090A00061603200612861506160320061209206B
:10091A008611061603200612061486140615861575
:0C092A0006160320061209206F140800B6
:100936001C218A110A128000840ADC0A0319DD0AC6
:08094600F003031D9B2C0800C7
:10094E0083120317100884000008F10011088400B8
:10095E00000871020318E22C1408313A031DC22C50
:10096E000313071602300317950003309600A030CC
:10097E009700D920E12C03171408323A031DD22C0C
:10098E000313871602300317950009309600C13005
:10099E009700D920E12C03171408333A031DE12CDC
:1009AE00031307170230031795000F309600BD3062
:1009BE009700D9201B2D0317100884000008F100A2
:1009CE001108840000087102031C1B2D1408313A13
:1009DE00031DFC2C0313071202300317950003307E
:1009EE009600B9309700D9201B2D03171408323A00
:1009FE00031D0C2D031387120230031795000930C7
:100A0E009600D1309700D9201B2D03171408333AC6
:100A1E00031D1B2D031307130230031795000F3010
:100A2E009600CD309700D920031710088400000AD5
:100A3E00F000100884007008800010088400000880
:100A4E00F10000301306031D2E2D12087106031D32
:0A0A5E00332D100884008001080009
:100A6800FE26033083160313DF000130E000063052
:100A7800E1000130E2000930E3000130E400E50163
:100A8800E601E701E801E901EA01EB01EC01ED010A
:100A9800EE01EF0186010F3087004D240C3003175B
:100AA800A3001D2001300317950001309600C530C2
:100AB8009700D9201230FB00C230FC006630FD00E0
:100AC800FD0B642DFC0B642DFB0B642D0000013025
:100AD8000317A3001D20DF3003179000E0309100BA
:100AE80031309200D222E13003179000E2309100B9
:100AF80032309200D222E33003179000E4309100A4
:100B080033309200D22283166008F000F1013C30A5
:100B1800F4000030F500A72283165F08F200F30105
:100B280072087007E50071080318013E7307E600B4
:100B38006208F000F1013C30F4000030F500A72213
:100B480083166108F200F30172087007E700710864
:100B58000318013E7307E8006408F000F1013C3017
:100B6800F4000030F500A72283166308F200F301B1
:100B780072087007E90071080318013E7307EA005C
:100B8800023083120317950001309600B6309700A3
:100B9800D92002300317950007309600AC30970033
:100BA800D9200230031795000D309600A930970020
:100BB800D9208312EB3003179000DF3091008316A1
:100BC800031365088312031792008316031366083C
:100BD80083120317930031309400A724EC3090005F
:100BE800E1309100831603136708831203179200FC
:100BF8008316031368088312031793003230940096
:100C0800A724ED309000E3309100831603136908A0
:100C1800831203179200831603136A0883120317BB
:100C2800930033309400A7243C30F4000030F500E2
:100C3800831603136E08F0006F08F1002522700870
:100C48008316DE003C30F4008E22700883166E0294
:100C5800831203179500D5309600F12101309500D5
:100C68000C309600D5309700D92083165E08831281
:100C7800031795009601D53097008721013095001C
:100C880001309600D5309700D92001300317950020
:100C980001309600A4309700D92001300317950041
:100CA80007309600B4309700D9200130031795001B
:100CB80009309600AF309700D9201A30FB005E301B
:100CC800FC006E30FD00FD0B672EFC0B672EFB0B46
:100CD800672E00008316EE0A0319EF0ADD2D732E26
:100DFC00203084004F3083120313F00079308316B7
:100E0C00DC000630DD009B24A030840035308312DA
:100E1C000313F000C8308316DC000630DD009B2481
:020E2C000800BC
:100CF2004D3469346E3420344F34663466343A34B9
:020D02000034BB
:100D040064346534763469346334653420340034AF
:100D14005334653463346F346E3464347334203440
:080D24005334653474340034CB
:100D2C004D3469346E347534743465347334203412
:060D3C003D3420340034B8
:100D42005334653463346F346E3464347334203412
:060D52003D3420340034A2
:100D58004D3469346E3475347434653473342034E6
:080D6800533465347434003487
:100D700053346534633420344F346E343A340034A1
:100D80006434653476346934633465342034003433
:080D90004F344E3420340034CE
:0A0D98004D3469346E343A340034EF
:060DA20033343A34003442
:060DA80032343A3400343D
:0A0DAE007334653463343A340034C2
:040DB8002C340034A3
:060DBC0031343A3400342A
:080DC2004F346634663400343E
:080DCA004F344E342034003494
:080DD2004F344E34203400348C
:100DDA00573465346C3463346F346D34653400349D
:080DEA004F3466346634003416
:080DF2004F346634663400340E
:02400E004A2F37
:00000001FF
